{
  "contractName": "HarnessWithSetup",
  "abi": [
    {
      "inputs": [],
      "name": "echidna_initialized",
      "outputs": [
        {
          "internalType": "bool",
          "name": "",
          "type": "bool"
        }
      ],
      "stateMutability": "view",
      "type": "function"
    },
    {
      "inputs": [],
      "name": "initialized",
      "outputs": [
        {
          "internalType": "uint256",
          "name": "",
          "type": "uint256"
        }
      ],
      "stateMutability": "view",
      "type": "function"
    },
    {
      "inputs": [],
      "name": "setUp",
      "outputs": [],
      "stateMutability": "nonpayable",
      "type": "function"
    }
  ],
  "bytecode": {
    "object": "0x608060405234801561000f575f80fd5b506101258061001d5f395ff3fe6080604052348015600e575f80fd5b5060043610603a575f3560e01c80630a9254e414603e578063158ef93e146046578063cb248f7e146060575b5f80fd5b6044607a565b005b604c6083565b6040516057919060a9565b60405180910390f35b60666088565b6040516071919060d8565b60405180910390f35b602a5f81905550565b5f5481565b5f602a5f5414905090565b5f819050919050565b60a3816093565b82525050565b5f60208201905060ba5f830184609c565b92915050565b5f8115159050919050565b60d28160c0565b82525050565b5f60208201905060e95f83018460cb565b9291505056fea26469706673582212200f1599468b69e16da0ab4079c37cf3f2d65f491bf2646a9c867bdd7e1b5c0dd364736f6c63430008140033"
  },
  "compilationTarget": {
    "test/HarnessWithSetup.sol": "HarnessWithSetup"
  }
}