{
  "contractName": "RuntimeStub",
  "abi": [
    {
      "inputs": [],
      "name": "magic",
      "outputs": [
        {
          "internalType": "uint256",
          "name": "",
          "type": "uint256"
        }
      ],
      "stateMutability": "view",
      "type": "function"
    }
  ],
  "bytecode": {
    "object": "0x608060405260015f55348015610013575f80fd5b5060ac806100205f395ff3fe6080604052348015600e575f80fd5b50600436106026575f3560e01c80630d85464614602a575b5f80fd5b60306044565b604051603b9190605f565b60405180910390f35b5f5481565b5f819050919050565b6059816049565b82525050565b5f60208201905060705f8301846052565b9291505056fea26469706673582212205fed41d1e2222fb88557f9b5475d304f22a16ff518640e37c4b5f6a29f474cd864736f6c63430008140033"
  },
  "compilationTarget": {
    "src/RuntimeStub.sol": "RuntimeStub"
  }
}